{
  "contractName": "Food",
  "abi": [
    {
      "constant": false,
      "inputs": [
        {
          "name": "area",
          "type": "string"
        }
      ],
      "name": "addArea",
      "outputs": [
        {
          "name": "",
          "type": "uint256"
        }
      ],
      "payable": false,
      "stateMutability": "nonpayable",
      "type": "function"
    },
    {
      "constant": true,
      "inputs": [
        {
          "name": "id",
          "type": "uint256"
        }
      ],
      "name": "getArea",
      "outputs": [
        {
          "name": "area",
          "type": "string"
        }
      ],
      "payable": false,
      "stateMutability": "view",
      "type": "function"
    },
    {
      "constant": true,
      "inputs": [],
      "name": "getAreas",
      "outputs": [
        {
          "name": "",
          "type": "string[]"
        }
      ],
      "payable": false,
      "stateMutability": "view",
      "type": "function"
    },
    {
      "constant": false,
      "inputs": [
        {
          "name": "name",
          "type": "string"
        },
        {
          "name": "addr",
          "type": "string"
        },
        {
          "name": "areaId",
          "type": "uint256"
        }
      ],
      "name": "addRestaurant",
      "outputs": [
        {
          "name": "",
          "type": "uint256"
        }
      ],
      "payable": true,
      "stateMutability": "payable",
      "type": "function"
    },
    {
      "constant": false,
      "inputs": [
        {
          "name": "id",
          "type": "uint256"
        },
        {
          "name": "name",
          "type": "string"
        },
        {
          "name": "price",
          "type": "uint256"
        }
      ],
      "name": "addItem",
      "outputs": [],
      "payable": false,
      "stateMutability": "nonpayable",
      "type": "function"
    },
    {
      "constant": true,
      "inputs": [
        {
          "name": "id",
          "type": "uint256"
        }
      ],
      "name": "getRestaurant",
      "outputs": [
        {
          "name": "name",
          "type": "string"
        },
        {
          "name": "addr",
          "type": "string"
        },
        {
          "name": "areaId",
          "type": "uint256"
        }
      ],
      "payable": false,
      "stateMutability": "view",
      "type": "function"
    },
    {
      "constant": true,
      "inputs": [
        {
          "name": "restId",
          "type": "uint256"
        },
        {
          "name": "itemId",
          "type": "uint256"
        }
      ],
      "name": "getItem",
      "outputs": [
        {
          "name": "name",
          "type": "string"
        },
        {
          "name": "price",
          "type": "uint256"
        }
      ],
      "payable": false,
      "stateMutability": "view",
      "type": "function"
    },
    {
      "constant": false,
      "inputs": [
        {
          "name": "name",
          "type": "string"
        },
        {
          "name": "addr",
          "type": "string"
        },
        {
          "name": "phoneNo",
          "type": "uint256"
        }
      ],
      "name": "register",
      "outputs": [],
      "payable": false,
      "stateMutability": "nonpayable",
      "type": "function"
    },
    {
      "constant": false,
      "inputs": [
        {
          "name": "items",
          "type": "uint256[]"
        },
        {
          "name": "quantities",
          "type": "uint256[]"
        },
        {
          "name": "areaId",
          "type": "uint256"
        },
        {
          "name": "fullAddress",
          "type": "string"
        },
        {
          "name": "restId",
          "type": "uint256"
        }
      ],
      "name": "placeOrder",
      "outputs": [
        {
          "name": "",
          "type": "uint256"
        }
      ],
      "payable": true,
      "stateMutability": "payable",
      "type": "function"
    },
    {
      "constant": true,
      "inputs": [
        {
          "name": "id",
          "type": "uint256"
        }
      ],
      "name": "getOrder",
      "outputs": [
        {
          "components": [
            {
              "name": "orderer",
              "type": "address"
            },
            {
              "name": "deliverer",
              "type": "address"
            },
            {
              "name": "fund",
              "type": "uint256"
            },
            {
              "name": "restaurantId",
              "type": "uint256"
            },
            {
              "name": "items",
              "type": "uint256[]"
            },
            {
              "name": "quantities",
              "type": "uint256[]"
            },
            {
              "name": "areaId",
              "type": "uint256"
            },
            {
              "name": "fullAddress",
              "type": "string"
            },
            {
              "name": "isCanceled",
              "type": "bool"
            },
            {
              "name": "restaurantApproved",
              "type": "bool"
            },
            {
              "name": "pickupConfirmed",
              "type": "bool"
            },
            {
              "name": "orderReceived",
              "type": "bool"
            }
          ],
          "name": "",
          "type": "tuple"
        }
      ],
      "payable": false,
      "stateMutability": "view",
      "type": "function"
    },
    {
      "constant": false,
      "inputs": [
        {
          "name": "orderId",
          "type": "uint256"
        }
      ],
      "name": "cancelOrder",
      "outputs": [
        {
          "name": "",
          "type": "bool"
        }
      ],
      "payable": false,
      "stateMutability": "nonpayable",
      "type": "function"
    },
    {
      "constant": false,
      "inputs": [
        {
          "name": "orderId",
          "type": "uint256"
        }
      ],
      "name": "receivedOrder",
      "outputs": [],
      "payable": false,
      "stateMutability": "nonpayable",
      "type": "function"
    },
    {
      "constant": false,
      "inputs": [
        {
          "name": "orderId",
          "type": "uint256"
        }
      ],
      "name": "approveOrder",
      "outputs": [],
      "payable": false,
      "stateMutability": "nonpayable",
      "type": "function"
    },
    {
      "constant": true,
      "inputs": [
        {
          "name": "areaId",
          "type": "uint256"
        }
      ],
      "name": "searchArea",
      "outputs": [
        {
          "name": "",
          "type": "uint256[]"
        },
        {
          "name": "",
          "type": "address[]"
        },
        {
          "name": "",
          "type": "string[]"
        },
        {
          "name": "",
          "type": "uint256[]"
        }
      ],
      "payable": false,
      "stateMutability": "view",
      "type": "function"
    },
    {
      "constant": false,
      "inputs": [
        {
          "name": "orderId",
          "type": "uint256"
        }
      ],
      "name": "acceptOrder",
      "outputs": [],
      "payable": true,
      "stateMutability": "payable",
      "type": "function"
    },
    {
      "constant": false,
      "inputs": [
        {
          "name": "orderId",
          "type": "uint256"
        }
      ],
      "name": "confirmPickup",
      "outputs": [],
      "payable": false,
      "stateMutability": "nonpayable",
      "type": "function"
    }
  ],
  "bytecode": "0x608060405260008054600160a060020a03191633179055600a6002908155600355606460045534801561003157600080fd5b5061212e806100416000396000f3fe608060405260043610610110576000357c010000000000000000000000000000000000000000000000000000000090048063bd4b8a04116100a7578063d33bcb5511610076578063d33bcb55146102e9578063dbb4be2c14610309578063e8a6055814610329578063ef18e9ed1461034957610110565b8063bd4b8a041461024d578063c298f1e71461026d578063cda679781461029c578063d09ef241146102bc57610110565b80636490c7a8116100e35780636490c7a8146101cb57806372c8ef0f146101f857806389b0e19714610218578063b776fc151461022b57610110565b80632ea3981a14610115578063514fcac71461014057806359cc334a1461016d5780635c361e891461019b575b600080fd5b34801561012157600080fd5b5061012a61035c565b6040516101379190611eee565b60405180910390f35b34801561014c57600080fd5b5061016061015b366004611b49565b610435565b6040516101379190611f56565b34801561017957600080fd5b5061018d610188366004611b88565b61046e565b604051610137929190611fa9565b3480156101a757600080fd5b506101bb6101b6366004611b49565b610555565b6040516101379493929190611eff565b3480156101d757600080fd5b506101eb6101e6366004611b49565b610b04565b6040516101379190611f64565b61020b610206366004611acd565b610bad565b6040516101379190611fea565b61020b6102263660046119d4565b610ce2565b34801561023757600080fd5b5061024b610246366004611b67565b610fc2565b005b34801561025957600080fd5b5061024b610268366004611b49565b61105e565b34801561027957600080fd5b5061028d610288366004611b49565b611091565b60405161013793929190611f75565b3480156102a857600080fd5b5061024b6102b7366004611b49565b61121c565b3480156102c857600080fd5b506102dc6102d7366004611b49565b611253565b6040516101379190611fd9565b3480156102f557600080fd5b5061024b610304366004611b49565b611445565b34801561031557600080fd5b5061020b610324366004611a90565b611488565b34801561033557600080fd5b5061024b610344366004611acd565b6114f2565b61024b610357366004611b49565b611566565b60606001805480602002602001604051908101604052809291908181526020016000905b8282101561042b5760008481526020908190208301805460408051601f60026000196101006001871615020190941693909304928301859004850281018501909152818152928301828280156104175780601f106103ec57610100808354040283529160200191610417565b820191906000526020600020905b8154815290600101906020018083116103fa57829003601f168201915b505050505081526020019060010190610380565b5050505090505b90565b6000806008838154811061044557fe5b60009182526020909120600860099092020101805460ff19166001908117909155915050919050565b60606000806005858154811061048057fe5b906000526020600020906007020160060160008581526020019081526020016000209050806000018160010154818054600181600116156101000203166002900480601f0160208091040260200160405190810160405280929190818152602001828054600181600116156101000203166002900480156105425780601f1061051757610100808354040283529160200191610542565b820191906000526020600020905b81548152906001019060200180831161052557829003601f168201915b5050505050915092509250509250929050565b60608080806000805b60085481101561077c5760006008828154811061057757fe5b90600052602060002090600902019050878160060154148015610767575060408051610180810182528254600160a060020a03908116825260018401541660208083019190915260028401548284015260038401546060830152600484018054845181840281018401909552808552610767948693608086019391929083018282801561062357602002820191906000526020600020905b81548152602001906001019080831161060f575b505050505081526020016005820180548060200260200160405190810160405280929190818152602001828054801561067b57602002820191906000526020600020905b815481526020019060010190808311610667575b5050509183525050600682015460208083019190915260078301805460408051601f600260001961010060018716150201909416939093049283018590048502810185018252828152940193928301828280156107195780601f106106ee57610100808354040283529160200191610719565b820191906000526020600020905b8154815290600101906020018083116106fc57829003601f168201915b50505091835250506008919091015460ff8082161515602084015261010082048116151560408401526201000082048116151560608401526301000000909104161515608090910152611732565b15610773576001909201915b5060010161055e565b506060816040519080825280602002602001820160405280156107a9578160200160208202803883390190505b5090506060826040519080825280602002602001820160405280156107d8578160200160208202803883390190505b50905060608360405190808252806020026020018201604052801561081157816020015b60608152602001906001900390816107fc5790505b509050606084604051908082528060200260200182016040528015610840578160200160208202803883390190505b50600095509050845b600854811015610af35760006008828154811061086257fe5b906000526020600020906009020190508b81600601541480156109d5575060408051610180810182528254600160a060020a039081168252600184015416602080830191909152600284015482840152600384015460608301526004840180548451818402810184019095528085526109d59486936080860193919290830182828015610623576020028201919060005260206000209081548152602001906001019080831161060f57505050505081526020016005820180548060200260200160405190810160405280929190818152602001828054801561067b5760200282019190600052602060002090815481526020019060010190808311610667575050509183525050600682015460208083019190915260078301805460408051601f600260001961010060018716150201909416939093049283018590048502810185018252828152940193928301828280156107195780601f106106ee57610100808354040283529160200191610719565b15610aea57818688815181106109e757fe5b602090810291909101015280548551600160a060020a0390911690869089908110610a0e57fe5b600160a060020a0390921660209283029190910182015260078201805460408051601f6002600019610100600187161502019094169390930492830185900485028101850190915281815292830182828015610aab5780601f10610a8057610100808354040283529160200191610aab565b820191906000526020600020905b815481529060010190602001808311610a8e57829003601f168201915b5050505050848881518110610abc57fe5b60200260200101819052508060020154838881518110610ad857fe5b60209081029190910101526001909601955b50600101610849565b509299919850965090945092505050565b606060018281548110610b1357fe5b600091825260209182902001805460408051601f6002600019610100600187161502019094169390930492830185900485028101850190915281815292830182828015610ba15780601f10610b7657610100808354040283529160200191610ba1565b820191906000526020600020905b815481529060010190602001808311610b8457829003601f168201915b50505050509050919050565b6000610bb7611766565b3381523460208083019182526040830187815260608401879052608084018690526005805460018101808355600092909252855160079091027f036b6384b5eca791c62761152d0c79bb0604c104a5fb6f4eb0703f3154bb3db081018054600160a060020a039390931673ffffffffffffffffffffffffffffffffffffffff1990931692909217825594517f036b6384b5eca791c62761152d0c79bb0604c104a5fb6f4eb0703f3154bb3db18601559151805191948694610c9e937f036b6384b5eca791c62761152d0c79bb0604c104a5fb6f4eb0703f3154bb3db29092019201906117a5565b5060608201518051610cba9160038401916020909101906117a5565b506080820151600482015560a0909101516005918201555460001901925050505b9392505050565b6000610cec611823565b3381526080810187905260a0810186905260c0810185905260e08101849052606081018390526000805b8851811015610d8b57878181518110610d2b57fe5b602002602001015160058681548110610d4057fe5b906000526020600020906007020160060160008b8481518110610d5f57fe5b602002602001015181526020019081526020016000206001015402820191508080600101915050610d16565b5060045481013414610dd2576040517f08c379a0000000000000000000000000000000000000000000000000000000008152600401610dc990611fc9565b60405180910390fd5b6004548101604083019081526008805460018101808355600092909252845160099091027ff3f7a9fe364faab93b216da50a3214154f22a0a2b415b23a84c8169e8b636ee381018054600160a060020a0393841673ffffffffffffffffffffffffffffffffffffffff199182161782556020808901517ff3f7a9fe364faab93b216da50a3214154f22a0a2b415b23a84c8169e8b636ee4850180549190961692169190911790935593517ff3f7a9fe364faab93b216da50a3214154f22a0a2b415b23a84c8169e8b636ee582015560608601517ff3f7a9fe364faab93b216da50a3214154f22a0a2b415b23a84c8169e8b636ee682015560808601518051939487949093610f04937ff3f7a9fe364faab93b216da50a3214154f22a0a2b415b23a84c8169e8b636ee701920190611886565b5060a08201518051610f20916005840191602090910190611886565b5060c0820151600682015560e08201518051610f469160078401916020909101906117a5565b5061010082810151600892830180546101208601516101408701516101609097015160ff199092169315159390931761ff0019169215159093029190911762ff0000191662010000941515949094029390931763ff00000019166301000000911515919091021790915554600019019998505050505050505050565b600060058481548110610fd157fe5b60009182526020808320604080516060810182528881528084018890528082018690526005600790950290920193840154855260068401835290932083518051939550909261102392849201906117a5565b5060208201516001828101919091556040909201516002909101805460ff191691151591909117905560059190910180549091019055505050565b60006008828154811061106d57fe5b60009182526020909120600860099092020101805461ff0019166101001790555050565b6060806000600584815481106110a357fe5b9060005260206000209060070201600201600585815481106110c157fe5b9060005260206000209060070201600301600586815481106110df57fe5b600091825260209182902060046007909202010154835460408051601f60026000196101006001871615020190941693909304928301859004850281018501909152818152919285919083018282801561117a5780601f1061114f5761010080835404028352916020019161117a565b820191906000526020600020905b81548152906001019060200180831161115d57829003601f168201915b5050855460408051602060026001851615610100026000190190941693909304601f8101849004840282018401909252818152959850879450925084019050828280156112085780601f106111dd57610100808354040283529160200191611208565b820191906000526020600020905b8154815290600101906020018083116111eb57829003601f168201915b505050505091509250925092509193909250565b60006008828154811061122b57fe5b60009182526020909120600860099092020101805463ff000000191663010000001790555050565b61125b611823565b6008828154811061126857fe5b6000918252602091829020604080516101808101825260099093029091018054600160a060020a03908116845260018201541683850152600281015483830152600381015460608401526004810180548351818702810187019094528084529394919360808601939283018282801561130057602002820191906000526020600020905b8154815260200190600101908083116112ec575b505050505081526020016005820180548060200260200160405190810160405280929190818152602001828054801561135857602002820191906000526020600020905b815481526020019060010190808311611344575b5050509183525050600682015460208083019190915260078301805460408051601f600260001961010060018716150201909416939093049283018590048502810185018252828152940193928301828280156113f65780601f106113cb576101008083540402835291602001916113f6565b820191906000526020600020905b8154815290600101906020018083116113d957829003601f168201915b50505091835250506008919091015460ff808216151560208401526101008204811615156040840152620100008204811615156060840152630100000090910416151560809091015292915050565b60006008828154811061145457fe5b60009182526020909120600160099092020101805473ffffffffffffffffffffffffffffffffffffffff1916331790555050565b60008054600160a060020a031633146114a057600080fd5b6001805480820180835560009290925283516114e3917fb10e2d527612073b26eecdfd717e6a320cf44b4afac2b0732d9fcbe2b7fa0cf6019060208601906117a5565b50506001546000190192915050565b6114fa6118c0565b506040805160608101825284815260208082018590528183018490523360009081526007825292909220815180519293849361153992849201906117a5565b50602082810151805161155292600185019201906117a5565b506040820151816002015590505050505050565b60006008828154811061157557fe5b6000918252602091829020604080516101808101825260099093029091018054600160a060020a03908116845260018201541683850152600281015483830152600381015460608401526004810180548351818702810187019094528084529195506116db9486936080860193909291830182828015610623576020028201919060005260206000209081548152602001906001019080831161060f57505050505081526020016005820180548060200260200160405190810160405280929190818152602001828054801561067b5760200282019190600052602060002090815481526020019060010190808311610667575050509183525050600682015460208083019190915260078301805460408051601f600260001961010060018716150201909416939093049283018590048502810185018252828152940193928301828280156107195780601f106106ee57610100808354040283529160200191610719565b6116e457600080fd5b60006003548260020154816116f557fe5b0460045483600201540301905080341461170e57600080fd5b50600101805473ffffffffffffffffffffffffffffffffffffffff19163317905550565b6000816101200151801561175157506020820151600160a060020a0316155b80156117605750816101000151155b92915050565b6040518060c001604052806000600160a060020a0316815260200160008152602001606081526020016060815260200160008152602001600081525090565b828054600181600116156101000203166002900490600052602060002090601f016020900481019282601f106117e657805160ff1916838001178555611813565b82800160010185558215611813579182015b828111156118135782518255916020019190600101906117f8565b5061181f9291506118e1565b5090565b604080516101808101825260008082526020820181905291810182905260608082018390526080820181905260a0820181905260c0820183905260e082015261010081018290526101208101829052610140810182905261016081019190915290565b82805482825590600052602060002090810192821561181357916020028201828111156118135782518255916020019190600101906117f8565b60405180606001604052806060815260200160608152602001600081525090565b61043291905b8082111561181f57600081556001016118e7565b600082601f83011261190c57600080fd5b813561191f61191a8261201f565b611ff8565b9150818183526020840193506020810190508385602084028201111561194457600080fd5b60005b83811015611970578161195a88826119c9565b8452506020928301929190910190600101611947565b5050505092915050565b600082601f83011261198b57600080fd5b813561199961191a82612040565b915080825260208301602083018583830111156119b557600080fd5b6119c0838284612097565b50505092915050565b8035611760816120dd565b600080600080600060a086880312156119ec57600080fd5b853567ffffffffffffffff811115611a0357600080fd5b611a0f888289016118fb565b955050602086013567ffffffffffffffff811115611a2c57600080fd5b611a38888289016118fb565b9450506040611a49888289016119c9565b935050606086013567ffffffffffffffff811115611a6657600080fd5b611a728882890161197a565b9250506080611a83888289016119c9565b9150509295509295909350565b600060208284031215611aa257600080fd5b813567ffffffffffffffff811115611ab957600080fd5b611ac58482850161197a565b949350505050565b600080600060608486031215611ae257600080fd5b833567ffffffffffffffff811115611af957600080fd5b611b058682870161197a565b935050602084013567ffffffffffffffff811115611b2257600080fd5b611b2e8682870161197a565b9250506040611b3f868287016119c9565b9150509250925092565b600060208284031215611b5b57600080fd5b6000611ac584846119c9565b600080600060608486031215611b7c57600080fd5b6000611b0586866119c9565b60008060408385031215611b9b57600080fd5b6000611ba785856119c9565b9250506020611bb8858286016119c9565b9150509250929050565b6000611bce8383611bee565b505060200190565b6000610cdb8383611d69565b6000611bce8383611ee5565b611bf78161207b565b82525050565b6000611c088261206e565b611c128185612072565b9350611c1d83612068565b8060005b83811015611c4b578151611c358882611bc2565b9750611c4083612068565b925050600101611c21565b509495945050505050565b6000611c618261206e565b611c6b8185612072565b935083602082028501611c7d85612068565b8060005b85811015611cb75784840389528151611c9a8582611bd6565b9450611ca583612068565b60209a909a0199925050600101611c81565b5091979650505050505050565b6000611ccf8261206e565b611cd98185612072565b9350611ce483612068565b8060005b83811015611c4b578151611cfc8882611be2565b9750611d0783612068565b925050600101611ce8565b6000611d1d8261206e565b611d278185612072565b9350611d3283612068565b8060005b83811015611c4b578151611d4a8882611be2565b9750611d5583612068565b925050600101611d36565b611bf781612086565b6000611d748261206e565b611d7e8185612072565b9350611d8e8185602086016120a3565b611d97816120d3565b9093019392505050565b6000611dae601583612072565b7f4e6f7420656e6f7567682066756e642073656e742e0000000000000000000000815260200192915050565b8051600090610180840190611def8582611bee565b506020830151611e026020860182611bee565b506040830151611e156040860182611ee5565b506060830151611e286060860182611ee5565b5060808301518482036080860152611e408282611d12565b91505060a083015184820360a0860152611e5a8282611d12565b91505060c0830151611e6f60c0860182611ee5565b5060e083015184820360e0860152611e878282611d69565b915050610100830151611e9e610100860182611d60565b50610120830151611eb3610120860182611d60565b50610140830151611ec8610140860182611d60565b50610160830151611edd610160860182611d60565b509392505050565b611bf781610432565b60208082528101610cdb8184611c56565b60808082528101611f108187611cc4565b90508181036020830152611f248186611bfd565b90508181036040830152611f388185611c56565b90508181036060830152611f4c8184611cc4565b9695505050505050565b602081016117608284611d60565b60208082528101610cdb8184611d69565b60608082528101611f868186611d69565b90508181036020830152611f9a8185611d69565b9050611ac56040830184611ee5565b60408082528101611fba8185611d69565b9050610cdb6020830184611ee5565b6020808252810161176081611da1565b60208082528101610cdb8184611dda565b602081016117608284611ee5565b60405181810167ffffffffffffffff8111828210171561201757600080fd5b604052919050565b600067ffffffffffffffff82111561203657600080fd5b5060209081020190565b600067ffffffffffffffff82111561205757600080fd5b506020601f91909101601f19160190565b60200190565b5190565b90815260200190565b60006117608261208b565b151590565b600160a060020a031690565b82818337506000910152565b60005b838110156120be5781810151838201526020016120a6565b838111156120cd576000848401525b50505050565b601f01601f191690565b6120e681610432565b81146120f157600080fd5b5056fea265627a7a723058202368abeb1d712ca28ca821046994db4b954301f655b9c2349af96b55b4695a716c6578706572696d656e74616cf50037",
  "source": "pragma solidity ^0.5.7;\npragma experimental ABIEncoderV2;\n// import \"github.com/ethereum/dapp-bin/library/stringUtils.sol\";\n//import \"./StringUtils.sol\";\n\n\ncontract Food {\n  struct Item {\n    string name;\n    uint256 price;\n    bool disabled;\n  }\n\n  struct Restaurant {\n    address owner;\n    uint256 fund;\n    string name;\n    string addr;\n    uint256 areaId;\n    uint256 itemId;\n    mapping(uint256=> Item) items;\n    // Item[] items;\n  }\n\n  struct User {\n    string name;\n    string addr;\n    uint256 phoneNo;\n  }\n\n  struct Order {\n    address orderer;\n    address deliverer;\n    uint256 fund;\n    uint256 restaurantId;\n    uint256[] items;\n    uint256[] quantities;\n    uint256 areaId;\n    string fullAddress;\n    bool isCanceled;\n    bool restaurantApproved;\n    bool pickupConfirmed;\n    bool orderReceived;\n  }\n\n  // Admin methods\n  address admin = msg.sender;\n  string[] areas;\n  uint commissionRate = 10;\n  uint lockedRate = 2;\n  uint256 deliveryFee = 100;\n\n  modifier isAdmin() {\n    require(msg.sender == admin);\n    _;\n  }\n\n  function addArea(string memory area) public isAdmin returns(uint256) {\n//    require(!checkAreaExists(area), \"Area already exists.\");\n    areas.push(area);\n    return areas.length -1;\n  }\n\n  function getArea(uint256 id) public view returns(string memory area){\n    return areas[id];\n  }\n\n  function getAreas() public view returns(string[] memory){\n    // string[] memory areasCopy = new string[](areas.length);\n    // for(uint256 i=0; i< areas.length; i++){\n    //     areasCopy = areas[i];\n    // }\n    return areas;\n  }\n\n//  function checkAreaExists(string memory area) private returns(bool found){\n//    for (uint i=0; i<areas.length; i++) {\n//      if(StringUtils.equal(areas[i], area)) return true;\n//    }\n//    return false;\n//  }\n\n\n  // Restaurant methods\n  // mapping(uint256 => Restaurant) restaurants;\n  Restaurant[] restaurants;\n  uint256 restaurantId;\n\n  function addRestaurant(string memory name, string memory addr, uint256 areaId)\n  public payable returns (uint256){\n    // Restaurant memory restaurant = Restaurant({\n    //     owner: msg.sender, fund: msg.value, name: name, addr: addr, area: area, items: new Item[](0)\n    // });\n    // restaurants[restaurantId] = restaurant;\n    // return restaurantId++;\n\n    Restaurant memory restaurant;\n    restaurant.owner = msg.sender;\n    restaurant.fund = msg.value;\n    restaurant.name = name;\n    restaurant.addr = addr;\n    restaurant.areaId = areaId;\n    restaurants.push(restaurant);\n    return restaurants.length -1;\n  }\n\n  function addItem(uint256 id, string memory name, uint256 price) public {\n    Restaurant storage restaurant = restaurants[id];\n    restaurant.items[restaurant.itemId] = Item(name, price, false);\n    restaurant.itemId++;\n  }\n\n  function getRestaurant(uint256 id) public view\n  returns(string memory name, string memory addr, uint256 areaId) {\n    return (restaurants[id].name, restaurants[id].addr, restaurants[id].areaId);\n  }\n\n  function getItem(uint256 restId, uint256 itemId) public view\n  returns (string memory name, uint256 price){\n    Item storage item = restaurants[restId].items[itemId];\n    return (item.name, item.price);\n  }\n\n\n  // User mathods\n  mapping(address => User) users;\n\n  function register(string memory name, string memory addr, uint256 phoneNo) public {\n    User memory user = User(name, addr, phoneNo);\n    users[msg.sender] = user;\n  }\n\n  // Orderer methods\n  Order[] orders;\n\n  function placeOrder(uint256[] memory items, uint256[] memory quantities, uint256 areaId,\n    string memory fullAddress, uint256 restId) public payable returns(uint256){\n    // add requires\n    Order memory order;\n    order.orderer = msg.sender;\n    order.items = items;\n    order.quantities = quantities;\n    order.areaId = areaId;\n    order.fullAddress = fullAddress;\n    order.restaurantId = restId;\n    // calculate prices\n    uint256 price = 0;\n    for(uint i=0; i <items.length; i++){\n      price += restaurants[restId].items[items[i]].price * quantities[i];\n    }\n    require(msg.value == price + deliveryFee , \"Not enough fund sent.\");\n\n    order.fund = price + deliveryFee;\n    orders.push(order);\n    return orders.length -1;\n  }\n\n  function getOrder(uint256 id) public view returns(Order memory){\n    return orders[id];\n  }\n\n  function cancelOrder(uint256 orderId) public returns(bool){\n    // check and return false\n    Order storage order = orders[orderId];\n    order.isCanceled = true;\n    return true;\n  }\n\n  function receivedOrder(uint256 orderId) public {\n    Order storage order = orders[orderId];\n    order.orderReceived = true;\n  }\n\n  function approveOrder(uint256 orderId) public {\n    Order storage order = orders[orderId];\n    order.restaurantApproved = true;\n  }\n\n  // Deliverer methods\n  function orderIsAvailable(Order memory order) private pure returns(bool){\n    return order.restaurantApproved\n    && order.deliverer == address(0) && !order.isCanceled;\n  }\n\n  function searchArea(uint256 areaId) public view\n  returns(uint256[] memory, address[] memory, string[] memory, uint256[] memory){\n\n    uint256 totalMatch = 0;\n    for(uint256 i=0; i<orders.length; i++){\n      Order storage order = orders[i];\n      if(order.areaId == areaId && orderIsAvailable(order)){\n        totalMatch++;\n      }\n    }\n\n    uint256[] memory orderIds = new uint256[](totalMatch);\n    address[] memory orderers = new address[](totalMatch);\n    string[] memory fullAddrs = new string[](totalMatch);\n    uint256[] memory prices = new uint256[](totalMatch);\n\n    totalMatch = 0;\n    for(uint256 i=0; i<orders.length; i++){\n      Order storage order = orders[i];\n      if(order.areaId == areaId && orderIsAvailable(order)){\n        orderIds[totalMatch] =i;\n        orderers[totalMatch] = order.orderer;\n        fullAddrs[totalMatch] = order.fullAddress;\n        prices[totalMatch] = order.fund;\n        totalMatch++;\n      }\n    }\n\n    return (orderIds, orderers, fullAddrs, prices);\n  }\n\n  function acceptOrder(uint256 orderId) public payable {\n    Order storage order = orders[orderId];\n    require(orderIsAvailable(order));\n\n    uint256 expected = order.fund - deliveryFee + order.fund/lockedRate;\n    require(msg.value ==  expected);\n\n    order.deliverer =  msg.sender;\n  }\n\n  function confirmPickup(uint256 orderId) public {\n    Order storage order = orders[orderId];\n    order.deliverer =  msg.sender;\n  }\n\n}",
  "sourcePath": "/Users/user/workplace/ethindia/del-dapp/contracts/Food.sol",
  "compiler": {
    "name": "solc",
    "version": "0.5.8+commit.23d335f2.Emscripten.clang"
  },
  "schemaVersion": "3.0.11",
  "updatedAt": "2019-08-03T18:36:15.707Z",
  "devdoc": {
    "methods": {}
  },
  "userdoc": {
    "methods": {}
  }
}